{
  "abi": [
    {
      "inputs": [
        {
          "internalType": "address",
          "name": "_tokenA",
          "type": "address"
        },
        {
          "internalType": "address",
          "name": "_tokenB",
          "type": "address"
        }
      ],
      "stateMutability": "nonpayable",
      "type": "constructor"
    },
    {
      "inputs": [
        {
          "internalType": "uint256",
          "name": "_tokenARes",
          "type": "uint256"
        },
        {
          "internalType": "uint256",
          "name": "_tokenBRes",
          "type": "uint256"
        }
      ],
      "name": "Res",
      "outputs": [],
      "stateMutability": "nonpayable",
      "type": "function"
    },
    {
      "inputs": [
        {
          "internalType": "uint256",
          "name": "amountIn",
          "type": "uint256"
        },
        {
          "internalType": "uint256",
          "name": "amountOutMin",
          "type": "uint256"
        }
      ],
      "name": "TokenAReceive",
      "outputs": [
        {
          "internalType": "uint256",
          "name": "amountToReceive",
          "type": "uint256"
        }
      ],
      "stateMutability": "view",
      "type": "function"
    },
    {
      "inputs": [
        {
          "internalType": "uint256",
          "name": "amountIn",
          "type": "uint256"
        },
        {
          "internalType": "uint256",
          "name": "amountOutMin",
          "type": "uint256"
        }
      ],
      "name": "TokenBReceive",
      "outputs": [
        {
          "internalType": "uint256",
          "name": "amountToReceive",
          "type": "uint256"
        }
      ],
      "stateMutability": "view",
      "type": "function"
    },
    {
      "inputs": [
        {
          "internalType": "uint256",
          "name": "amountA",
          "type": "uint256"
        },
        {
          "internalType": "uint256",
          "name": "amountB",
          "type": "uint256"
        }
      ],
      "name": "addLiquidity",
      "outputs": [],
      "stateMutability": "nonpayable",
      "type": "function"
    },
    {
      "inputs": [
        {
          "internalType": "uint256",
          "name": "amountA",
          "type": "uint256"
        },
        {
          "internalType": "uint256",
          "name": "amountB",
          "type": "uint256"
        }
      ],
      "name": "removeLiquidity",
      "outputs": [],
      "stateMutability": "nonpayable",
      "type": "function"
    },
    {
      "inputs": [
        {
          "internalType": "uint256",
          "name": "amountIn",
          "type": "uint256"
        },
        {
          "internalType": "uint256",
          "name": "amountOutMin",
          "type": "uint256"
        },
        {
          "internalType": "address",
          "name": "to",
          "type": "address"
        }
      ],
      "name": "swapTAforTB",
      "outputs": [],
      "stateMutability": "nonpayable",
      "type": "function"
    },
    {
      "inputs": [
        {
          "internalType": "uint256",
          "name": "amountIn",
          "type": "uint256"
        },
        {
          "internalType": "uint256",
          "name": "amountOutMin",
          "type": "uint256"
        },
        {
          "internalType": "address",
          "name": "to",
          "type": "address"
        }
      ],
      "name": "swapTBforTA",
      "outputs": [],
      "stateMutability": "nonpayable",
      "type": "function"
    }
  ],
  "bytecode": {
    "object": "0x608060405234801561001057600080fd5b50604051610b65380380610b6583398101604081905261002f9161007c565b600080546001600160a01b039384166001600160a01b031991821617909155600180549290931691161790556100af565b80516001600160a01b038116811461007757600080fd5b919050565b6000806040838503121561008f57600080fd5b61009883610060565b91506100a660208401610060565b90509250929050565b610aa7806100be6000396000f3fe608060405234801561001057600080fd5b506004361061007d5760003560e01c80639cd441da1161005b5780639cd441da146100cf5780639d7de6b3146100e2578063cd9e5ae7146100f5578063e0478d351461010857600080fd5b806344455946146100825780634747837614610097578063528cda59146100aa575b600080fd5b610095610090366004610930565b61011b565b005b6100956100a5366004610930565b610387565b6100bd6100b8366004610975565b6105df565b60405190815260200160405180910390f35b6100956100dd366004610975565b610610565b6100956100f0366004610975565b610788565b6100bd610103366004610975565b6108f5565b610095610116366004610975565b61091f565b600083116101615760405162461bcd60e51b815260206004820152600e60248201526d139bc81e995c9bc8105b5bdd5b9d60921b60448201526064015b60405180910390fd5b600080546040516370a0823160e01b81523360048201526001600160a01b03909116906370a08231906024016020604051808303816000875af11580156101ac573d6000803e3d6000fd5b505050506040513d601f19601f820116820180604052508101906101d09190610997565b90506000811161021b5760405162461bcd60e51b815260206004820152601660248201527542616c616e63652063616e6e6f74206265207a65726f60501b6044820152606401610158565b6000546040516323b872dd60e01b81526001600160a01b03909116906323b872dd9061024f903390309089906004016109b0565b6020604051808303816000875af115801561026e573d6000803e3d6000fd5b505050506040513d601f19601f8201168201806040525081019061029291906109d4565b5060015460405163a9059cbb60e01b81526001600160a01b03848116600483015260248201869052859260009291169063a9059cbb906044016020604051808303816000875af11580156102ea573d6000803e3d6000fd5b505050506040513d601f19601f8201168201806040525081019061030e91906109d4565b90508061034f5760405162461bcd60e51b815260206004820152600f60248201526e151c985b9cd9995c8811985a5b1959608a1b6044820152606401610158565b85600260008282546103619190610a0c565b92505081905550846003600082825461037a9190610a25565b9091555050505050505050565b600083116103c85760405162461bcd60e51b815260206004820152600e60248201526d139bc816995c9bc8105b5bdd5b9d60921b6044820152606401610158565b6001546040516370a0823160e01b81523360048201526000916001600160a01b0316906370a08231906024016020604051808303816000875af1158015610413573d6000803e3d6000fd5b505050506040513d601f19601f820116820180604052508101906104379190610997565b9050600081116104825760405162461bcd60e51b815260206004820152601660248201527542616c616e63652063616e6e6f74206265207a65726f60501b6044820152606401610158565b6001546040516323b872dd60e01b81526001600160a01b03909116906323b872dd906104b6903390309089906004016109b0565b6020604051808303816000875af11580156104d5573d6000803e3d6000fd5b505050506040513d601f19601f820116820180604052508101906104f991906109d4565b506000805460405163a9059cbb60e01b81526001600160a01b03858116600483015260248201879052869392169063a9059cbb906044016020604051808303816000875af115801561054f573d6000803e3d6000fd5b505050506040513d601f19601f8201168201806040525081019061057391906109d4565b9050806105b45760405162461bcd60e51b815260206004820152600f60248201526e151c985b9cd9995c8811985a5b1959608a1b6044820152606401610158565b85600360008282546105c69190610a0c565b92505081905550846002600082825461037a9190610a25565b6000826002546105ef9190610a25565b6004546105fc9190610a38565b6003546106099190610a25565b9392505050565b6000546040516323b872dd60e01b81526001600160a01b03909116906323b872dd90610644903390309087906004016109b0565b6020604051808303816000875af1158015610663573d6000803e3d6000fd5b505050506040513d601f19601f8201168201806040525081019061068791906109d4565b506001546040516323b872dd60e01b81526001600160a01b03909116906323b872dd906106bc903390309086906004016109b0565b6020604051808303816000875af11580156106db573d6000803e3d6000fd5b505050506040513d601f19601f820116820180604052508101906106ff91906109d4565b5081600260008282546107129190610a0c565b92505081905550806003600082825461072b9190610a0c565b9250508190555061074060025460035461091f565b336000908152600560205260408120805490918491839190610763908490610a0c565b925050819055508181600101600082825461077e9190610a0c565b9091555050505050565b336000818152600560205260408082209154905163a9059cbb60e01b815260048101939093526024830185905290916001600160a01b039091169063a9059cbb906044016020604051808303816000875af11580156107eb573d6000803e3d6000fd5b505050506040513d601f19601f8201168201806040525081019061080f91906109d4565b5060015460405163a9059cbb60e01b8152336004820152602481018490526001600160a01b039091169063a9059cbb906044016020604051808303816000875af1158015610861573d6000803e3d6000fd5b505050506040513d601f19601f8201168201806040525081019061088591906109d4565b5082600260008282546108989190610a25565b9250508190555081600360008282546108b19190610a25565b925050819055506108c660025460035461091f565b828160000160008282546108da9190610a25565b925050819055508181600101600082825461077e9190610a25565b6000826003546109059190610a25565b6004546109129190610a38565b6002546106099190610a25565b6109298183610a5a565b6004555050565b60008060006060848603121561094557600080fd5b833592506020840135915060408401356001600160a01b038116811461096a57600080fd5b809150509250925092565b6000806040838503121561098857600080fd5b50508035926020909101359150565b6000602082840312156109a957600080fd5b5051919050565b6001600160a01b039384168152919092166020820152604081019190915260600190565b6000602082840312156109e657600080fd5b8151801515811461060957600080fd5b634e487b7160e01b600052601160045260246000fd5b80820180821115610a1f57610a1f6109f6565b92915050565b81810381811115610a1f57610a1f6109f6565b600082610a5557634e487b7160e01b600052601260045260246000fd5b500490565b8082028115828204841417610a1f57610a1f6109f656fea2646970667358221220e3739e4d94f39823fde6058b586bce258af2da7d05ca51d412c9e381d788867864736f6c63430008130033",
    "linkReferences": {}
  },
  "methodIdentifiers": {
    "Res(uint256,uint256)": "e0478d35",
    "TokenAReceive(uint256,uint256)": "cd9e5ae7",
    "TokenBReceive(uint256,uint256)": "528cda59",
    "addLiquidity(uint256,uint256)": "9cd441da",
    "removeLiquidity(uint256,uint256)": "9d7de6b3",
    "swapTAforTB(uint256,uint256,address)": "44455946",
    "swapTBforTA(uint256,uint256,address)": "47478376"
  },
  "id": 3
}