{
  "abi": [
    {
      "anonymous": false,
      "inputs": [
        {
          "indexed": true,
          "internalType": "address",
          "name": "tokenOwner",
          "type": "address"
        },
        {
          "indexed": true,
          "internalType": "address",
          "name": "spender",
          "type": "address"
        },
        {
          "indexed": false,
          "internalType": "uint256",
          "name": "tokens",
          "type": "uint256"
        }
      ],
      "name": "Approval",
      "type": "event"
    },
    {
      "anonymous": false,
      "inputs": [
        {
          "indexed": false,
          "internalType": "address",
          "name": "to",
          "type": "address"
        },
        {
          "indexed": false,
          "internalType": "uint256",
          "name": "value",
          "type": "uint256"
        }
      ],
      "name": "Minted",
      "type": "event"
    },
    {
      "anonymous": false,
      "inputs": [
        {
          "indexed": true,
          "internalType": "address",
          "name": "from",
          "type": "address"
        },
        {
          "indexed": true,
          "internalType": "address",
          "name": "to",
          "type": "address"
        },
        {
          "indexed": false,
          "internalType": "uint256",
          "name": "tokens",
          "type": "uint256"
        }
      ],
      "name": "Transfer",
      "type": "event"
    },
    {
      "inputs": [],
      "name": "_name",
      "outputs": [
        {
          "internalType": "string",
          "name": "",
          "type": "string"
        }
      ],
      "stateMutability": "view",
      "type": "function"
    },
    {
      "inputs": [],
      "name": "_symbol",
      "outputs": [
        {
          "internalType": "string",
          "name": "",
          "type": "string"
        }
      ],
      "stateMutability": "view",
      "type": "function"
    },
    {
      "inputs": [
        {
          "internalType": "address",
          "name": "_owner",
          "type": "address"
        },
        {
          "internalType": "address",
          "name": "_spender",
          "type": "address"
        }
      ],
      "name": "allowance",
      "outputs": [
        {
          "internalType": "uint256",
          "name": "remaining",
          "type": "uint256"
        }
      ],
      "stateMutability": "view",
      "type": "function"
    },
    {
      "inputs": [
        {
          "internalType": "address",
          "name": "_spender",
          "type": "address"
        },
        {
          "internalType": "uint256",
          "name": "_value",
          "type": "uint256"
        }
      ],
      "name": "approve",
      "outputs": [
        {
          "internalType": "bool",
          "name": "success",
          "type": "bool"
        }
      ],
      "stateMutability": "nonpayable",
      "type": "function"
    },
    {
      "inputs": [
        {
          "internalType": "address",
          "name": "account",
          "type": "address"
        }
      ],
      "name": "balanceOf",
      "outputs": [
        {
          "internalType": "uint256",
          "name": "",
          "type": "uint256"
        }
      ],
      "stateMutability": "view",
      "type": "function"
    },
    {
      "inputs": [
        {
          "internalType": "uint256",
          "name": "value",
          "type": "uint256"
        },
        {
          "internalType": "address",
          "name": "target",
          "type": "address"
        }
      ],
      "name": "burn",
      "outputs": [],
      "stateMutability": "nonpayable",
      "type": "function"
    },
    {
      "inputs": [],
      "name": "decimals",
      "outputs": [
        {
          "internalType": "uint8",
          "name": "",
          "type": "uint8"
        }
      ],
      "stateMutability": "view",
      "type": "function"
    },
    {
      "inputs": [
        {
          "internalType": "address",
          "name": "_to",
          "type": "address"
        },
        {
          "internalType": "uint256",
          "name": "value",
          "type": "uint256"
        }
      ],
      "name": "mint",
      "outputs": [],
      "stateMutability": "nonpayable",
      "type": "function"
    },
    {
      "inputs": [],
      "name": "name",
      "outputs": [
        {
          "internalType": "string",
          "name": "",
          "type": "string"
        }
      ],
      "stateMutability": "view",
      "type": "function"
    },
    {
      "inputs": [],
      "name": "symbol",
      "outputs": [
        {
          "internalType": "string",
          "name": "",
          "type": "string"
        }
      ],
      "stateMutability": "view",
      "type": "function"
    },
    {
      "inputs": [],
      "name": "totalSupply",
      "outputs": [
        {
          "internalType": "uint256",
          "name": "",
          "type": "uint256"
        }
      ],
      "stateMutability": "view",
      "type": "function"
    },
    {
      "inputs": [
        {
          "internalType": "address",
          "name": "_to",
          "type": "address"
        },
        {
          "internalType": "uint256",
          "name": "_value",
          "type": "uint256"
        }
      ],
      "name": "transfer",
      "outputs": [
        {
          "internalType": "bool",
          "name": "success",
          "type": "bool"
        }
      ],
      "stateMutability": "nonpayable",
      "type": "function"
    },
    {
      "inputs": [
        {
          "internalType": "address",
          "name": "_from",
          "type": "address"
        },
        {
          "internalType": "address",
          "name": "_to",
          "type": "address"
        },
        {
          "internalType": "uint256",
          "name": "_value",
          "type": "uint256"
        }
      ],
      "name": "transferFrom",
      "outputs": [
        {
          "internalType": "bool",
          "name": "success",
          "type": "bool"
        }
      ],
      "stateMutability": "nonpayable",
      "type": "function"
    }
  ],
  "bytecode": {
    "object": "0x60c060405260046080818152634b616c6960e01b60a05262000022908262000105565b5060408051808201909152600281526112d360f21b60208201526005906200004b908262000105565b503480156200005957600080fd5b50620001d1565b634e487b7160e01b600052604160045260246000fd5b600181811c908216806200008b57607f821691505b602082108103620000ac57634e487b7160e01b600052602260045260246000fd5b50919050565b601f8211156200010057600081815260208120601f850160051c81016020861015620000db5750805b601f850160051c820191505b81811015620000fc57828155600101620000e7565b5050505b505050565b81516001600160401b0381111562000121576200012162000060565b620001398162000132845462000076565b84620000b2565b602080601f831160018114620001715760008415620001585750858301515b600019600386901b1c1916600185901b178555620000fc565b600085815260208120601f198616915b82811015620001a25788860151825594840194600190910190840162000181565b5085821015620001c15787850151600019600388901b60f8161c191681555b5050505050600190811b01905550565b610afa80620001e16000396000f3fe608060405234801561001057600080fd5b50600436106100cf5760003560e01c806370a082311161008c578063b09f126611610066578063b09f1266146101a2578063d28d8852146101aa578063dd62ed3e146101b2578063fcd3533c146101c557600080fd5b806370a082311461015e57806395d89b4114610187578063a9059cbb1461018f57600080fd5b806306fdde03146100d4578063095ea7b3146100f257806318160ddd1461011557806323b872dd14610127578063313ce5671461013a57806340c10f1914610149575b600080fd5b6100dc6101d8565b6040516100e9919061085d565b60405180910390f35b6101056101003660046108c7565b61026a565b60405190151581526020016100e9565b6002545b6040519081526020016100e9565b6101056101353660046108f1565b6102cc565b604051601281526020016100e9565b61015c6101573660046108c7565b6104be565b005b61011961016c36600461092d565b6001600160a01b031660009081526020819052604090205490565b6100dc6105aa565b61010561019d3660046108c7565b6105b9565b6100dc6106e3565b6100dc610771565b6101196101c036600461094f565b61077e565b61015c6101d3366004610982565b6107ab565b6060600480546101e7906109a5565b80601f0160208091040260200160405190810160405280929190818152602001828054610213906109a5565b80156102605780601f1061023557610100808354040283529160200191610260565b820191906000526020600020905b81548152906001019060200180831161024357829003601f168201915b5050505050905090565b3360008181526001602081815260408084206001600160a01b03881680865290835293819020869055518581529193917f8c5be1e5ebec7d5bd14f71427d1e84f3dd0314c0f7b2291e5b200ac8c7c3b92591015b60405180910390a392915050565b60006001600160a01b0383166102fd5760405162461bcd60e51b81526004016102f4906109df565b60405180910390fd5b6000821161033e5760405162461bcd60e51b815260206004820152600e60248201526d696e6372656173652076616c756560901b60448201526064016102f4565b8161035e856001600160a01b031660009081526020819052604090205490565b101561037c5760405162461bcd60e51b81526004016102f490610a23565b81610387858561077e565b11156103ce5760405162461bcd60e51b8152602060048201526016602482015275696e73756666696369656e7420616c6c6f77616e636560501b60448201526064016102f4565b6001600160a01b03808516600090815260016020908152604080832093871683529290529081208054849290610405908490610a65565b90915550506001600160a01b03841660009081526020819052604081208054849290610432908490610a65565b90915550506001600160a01b0383166000908152602081905260408120805484929061045f908490610a78565b9250508190555060019050826001600160a01b0316846001600160a01b03167fddf252ad1be2c89b69c2b068fc378daa952ba7f163c4a11628f55a4df523b3ef846040516104af91815260200190565b60405180910390a39392505050565b6001600160a01b0382166105205760405162461bcd60e51b8152602060048201526024808201527f747261736e66657220746f2061646472657373205a65726f206e6f7420616c6c6044820152631bddd95960e21b60648201526084016102f4565b80600260008282546105329190610a78565b90915550506001600160a01b0382166000908152602081905260408120805483929061055f908490610a78565b9091555050604080516001600160a01b0384168152602081018390527f30385c845b448a36257a6a1716e6ad2e1bc2cbe333cde1e69fe849ad6511adfe910160405180910390a15050565b6060600580546101e7906109a5565b60006001600160a01b0383166105e15760405162461bcd60e51b81526004016102f4906109df565b600082116106225760405162461bcd60e51b815260206004820152600e60248201526d696e6372656173652076616c756560901b60448201526064016102f4565b336000908152602081905260409020548211156106515760405162461bcd60e51b81526004016102f490610a23565b3360009081526020819052604081208054849290610670908490610a65565b90915550506001600160a01b0383166000908152602081905260408120805484929061069d908490610a78565b9091555050604051828152600191506001600160a01b0384169033907fddf252ad1be2c89b69c2b068fc378daa952ba7f163c4a11628f55a4df523b3ef906020016102be565b600580546106f0906109a5565b80601f016020809104026020016040519081016040528092919081815260200182805461071c906109a5565b80156107695780601f1061073e57610100808354040283529160200191610769565b820191906000526020600020905b81548152906001019060200180831161074c57829003601f168201915b505050505081565b600480546106f0906109a5565b6001600160a01b038083166000908152600160209081526040808320938516835292905220545b92915050565b336000908152602081905260409020548211156107da5760405162461bcd60e51b81526004016102f490610a23565b33600090815260208190526040812080548492906107f9908490610a65565b9091555060009050606461080e84605a610a8b565b6108189190610aa2565b9050806002600082825461082c9190610a65565b9091555061083c90508184610a65565b6001600160a01b039092166000908152602081905260409020919091555050565b600060208083528351808285015260005b8181101561088a5785810183015185820160400152820161086e565b506000604082860101526040601f19601f8301168501019250505092915050565b80356001600160a01b03811681146108c257600080fd5b919050565b600080604083850312156108da57600080fd5b6108e3836108ab565b946020939093013593505050565b60008060006060848603121561090657600080fd5b61090f846108ab565b925061091d602085016108ab565b9150604084013590509250925092565b60006020828403121561093f57600080fd5b610948826108ab565b9392505050565b6000806040838503121561096257600080fd5b61096b836108ab565b9150610979602084016108ab565b90509250929050565b6000806040838503121561099557600080fd5b82359150610979602084016108ab565b600181811c908216806109b957607f821691505b6020821081036109d957634e487b7160e01b600052602260045260246000fd5b50919050565b60208082526024908201527f7472616e7366657220746f2061646472657373205a65726f206e6f7420616c6c6040820152631bddd95960e21b606082015260800190565b602080825260129082015271696e73756666696369656e742066756e647360701b604082015260600190565b634e487b7160e01b600052601160045260246000fd5b818103818111156107a5576107a5610a4f565b808201808211156107a5576107a5610a4f565b80820281158282048414176107a5576107a5610a4f565b600082610abf57634e487b7160e01b600052601260045260246000fd5b50049056fea26469706673582212200fb11d5b74518acf3b50d09f33013040821d5e8623aba70a30570b4ca5dd16de64736f6c63430008130033",
    "linkReferences": {}
  },
  "methodIdentifiers": {
    "_name()": "d28d8852",
    "_symbol()": "b09f1266",
    "allowance(address,address)": "dd62ed3e",
    "approve(address,uint256)": "095ea7b3",
    "balanceOf(address)": "70a08231",
    "burn(uint256,address)": "fcd3533c",
    "decimals()": "313ce567",
    "mint(address,uint256)": "40c10f19",
    "name()": "06fdde03",
    "symbol()": "95d89b41",
    "totalSupply()": "18160ddd",
    "transfer(address,uint256)": "a9059cbb",
    "transferFrom(address,address,uint256)": "23b872dd"
  },
  "id": 5
}