{
  "abi": [
    {
      "inputs": [
        {
          "internalType": "string",
          "name": "name_",
          "type": "string"
        },
        {
          "internalType": "string",
          "name": "symbol_",
          "type": "string"
        }
      ],
      "stateMutability": "nonpayable",
      "type": "constructor"
    },
    {
      "anonymous": false,
      "inputs": [
        {
          "indexed": true,
          "internalType": "address",
          "name": "tokenOwner",
          "type": "address"
        },
        {
          "indexed": true,
          "internalType": "address",
          "name": "spender",
          "type": "address"
        },
        {
          "indexed": false,
          "internalType": "uint256",
          "name": "tokens",
          "type": "uint256"
        }
      ],
      "name": "Approval",
      "type": "event"
    },
    {
      "anonymous": false,
      "inputs": [
        {
          "indexed": false,
          "internalType": "address",
          "name": "to",
          "type": "address"
        },
        {
          "indexed": false,
          "internalType": "uint256",
          "name": "value",
          "type": "uint256"
        }
      ],
      "name": "Minted",
      "type": "event"
    },
    {
      "anonymous": false,
      "inputs": [
        {
          "indexed": true,
          "internalType": "address",
          "name": "from",
          "type": "address"
        },
        {
          "indexed": true,
          "internalType": "address",
          "name": "to",
          "type": "address"
        },
        {
          "indexed": false,
          "internalType": "uint256",
          "name": "tokens",
          "type": "uint256"
        }
      ],
      "name": "Transfer",
      "type": "event"
    },
    {
      "inputs": [
        {
          "internalType": "address",
          "name": "_owner",
          "type": "address"
        },
        {
          "internalType": "address",
          "name": "_spender",
          "type": "address"
        }
      ],
      "name": "allowance",
      "outputs": [
        {
          "internalType": "uint256",
          "name": "remaining",
          "type": "uint256"
        }
      ],
      "stateMutability": "view",
      "type": "function"
    },
    {
      "inputs": [
        {
          "internalType": "address",
          "name": "_spender",
          "type": "address"
        },
        {
          "internalType": "uint256",
          "name": "_value",
          "type": "uint256"
        }
      ],
      "name": "approve",
      "outputs": [
        {
          "internalType": "bool",
          "name": "success",
          "type": "bool"
        }
      ],
      "stateMutability": "nonpayable",
      "type": "function"
    },
    {
      "inputs": [
        {
          "internalType": "address",
          "name": "account",
          "type": "address"
        }
      ],
      "name": "balanceOf",
      "outputs": [
        {
          "internalType": "uint256",
          "name": "",
          "type": "uint256"
        }
      ],
      "stateMutability": "view",
      "type": "function"
    },
    {
      "inputs": [
        {
          "internalType": "uint256",
          "name": "value",
          "type": "uint256"
        },
        {
          "internalType": "address",
          "name": "target",
          "type": "address"
        }
      ],
      "name": "burn",
      "outputs": [],
      "stateMutability": "nonpayable",
      "type": "function"
    },
    {
      "inputs": [],
      "name": "decimals",
      "outputs": [
        {
          "internalType": "uint8",
          "name": "",
          "type": "uint8"
        }
      ],
      "stateMutability": "view",
      "type": "function"
    },
    {
      "inputs": [
        {
          "internalType": "address",
          "name": "_to",
          "type": "address"
        },
        {
          "internalType": "uint256",
          "name": "value",
          "type": "uint256"
        }
      ],
      "name": "mint",
      "outputs": [],
      "stateMutability": "nonpayable",
      "type": "function"
    },
    {
      "inputs": [],
      "name": "name",
      "outputs": [
        {
          "internalType": "string",
          "name": "",
          "type": "string"
        }
      ],
      "stateMutability": "view",
      "type": "function"
    },
    {
      "inputs": [],
      "name": "symbol",
      "outputs": [
        {
          "internalType": "string",
          "name": "",
          "type": "string"
        }
      ],
      "stateMutability": "view",
      "type": "function"
    },
    {
      "inputs": [],
      "name": "totalSupply",
      "outputs": [
        {
          "internalType": "uint256",
          "name": "",
          "type": "uint256"
        }
      ],
      "stateMutability": "view",
      "type": "function"
    },
    {
      "inputs": [
        {
          "internalType": "address",
          "name": "_to",
          "type": "address"
        },
        {
          "internalType": "uint256",
          "name": "_value",
          "type": "uint256"
        }
      ],
      "name": "transfer",
      "outputs": [
        {
          "internalType": "bool",
          "name": "success",
          "type": "bool"
        }
      ],
      "stateMutability": "nonpayable",
      "type": "function"
    },
    {
      "inputs": [
        {
          "internalType": "address",
          "name": "_from",
          "type": "address"
        },
        {
          "internalType": "address",
          "name": "_to",
          "type": "address"
        },
        {
          "internalType": "uint256",
          "name": "_value",
          "type": "uint256"
        }
      ],
      "name": "transferFrom",
      "outputs": [
        {
          "internalType": "bool",
          "name": "success",
          "type": "bool"
        }
      ],
      "stateMutability": "nonpayable",
      "type": "function"
    }
  ],
  "bytecode": {
    "object": "0x60806040523480156200001157600080fd5b5060405162000d1d38038062000d1d83398101604081905262000034916200011f565b600362000042838262000218565b50600462000051828262000218565b505050620002e4565b634e487b7160e01b600052604160045260246000fd5b600082601f8301126200008257600080fd5b81516001600160401b03808211156200009f576200009f6200005a565b604051601f8301601f19908116603f01168101908282118183101715620000ca57620000ca6200005a565b81604052838152602092508683858801011115620000e757600080fd5b600091505b838210156200010b5785820183015181830184015290820190620000ec565b600093810190920192909252949350505050565b600080604083850312156200013357600080fd5b82516001600160401b03808211156200014b57600080fd5b620001598683870162000070565b935060208501519150808211156200017057600080fd5b506200017f8582860162000070565b9150509250929050565b600181811c908216806200019e57607f821691505b602082108103620001bf57634e487b7160e01b600052602260045260246000fd5b50919050565b601f8211156200021357600081815260208120601f850160051c81016020861015620001ee5750805b601f850160051c820191505b818110156200020f57828155600101620001fa565b5050505b505050565b81516001600160401b038111156200023457620002346200005a565b6200024c8162000245845462000189565b84620001c5565b602080601f8311600181146200028457600084156200026b5750858301515b600019600386901b1c1916600185901b1785556200020f565b600085815260208120601f198616915b82811015620002b55788860151825594840194600190910190840162000294565b5085821015620002d45787850151600019600388901b60f8161c191681555b5050505050600190811b01905550565b610a2980620002f46000396000f3fe608060405234801561001057600080fd5b50600436106100a95760003560e01c806340c10f191161007157806340c10f191461012357806370a082311461013857806395d89b4114610161578063a9059cbb14610169578063dd62ed3e1461017c578063fcd3533c1461018f57600080fd5b806306fdde03146100ae578063095ea7b3146100cc57806318160ddd146100ef57806323b872dd14610101578063313ce56714610114575b600080fd5b6100b66101a2565b6040516100c3919061078c565b60405180910390f35b6100df6100da3660046107f6565b610234565b60405190151581526020016100c3565b6002545b6040519081526020016100c3565b6100df61010f366004610820565b610296565b604051601281526020016100c3565b6101366101313660046107f6565b610488565b005b6100f361014636600461085c565b6001600160a01b031660009081526020819052604090205490565b6100b6610574565b6100df6101773660046107f6565b610583565b6100f361018a36600461087e565b6106ad565b61013661019d3660046108b1565b6106da565b6060600380546101b1906108d4565b80601f01602080910402602001604051908101604052809291908181526020018280546101dd906108d4565b801561022a5780601f106101ff5761010080835404028352916020019161022a565b820191906000526020600020905b81548152906001019060200180831161020d57829003601f168201915b5050505050905090565b3360008181526001602081815260408084206001600160a01b03881680865290835293819020869055518581529193917f8c5be1e5ebec7d5bd14f71427d1e84f3dd0314c0f7b2291e5b200ac8c7c3b92591015b60405180910390a392915050565b60006001600160a01b0383166102c75760405162461bcd60e51b81526004016102be9061090e565b60405180910390fd5b600082116103085760405162461bcd60e51b815260206004820152600e60248201526d696e6372656173652076616c756560901b60448201526064016102be565b81610328856001600160a01b031660009081526020819052604090205490565b10156103465760405162461bcd60e51b81526004016102be90610952565b8161035185856106ad565b11156103985760405162461bcd60e51b8152602060048201526016602482015275696e73756666696369656e7420616c6c6f77616e636560501b60448201526064016102be565b6001600160a01b038085166000908152600160209081526040808320938716835292905290812080548492906103cf908490610994565b90915550506001600160a01b038416600090815260208190526040812080548492906103fc908490610994565b90915550506001600160a01b038316600090815260208190526040812080548492906104299084906109a7565b9250508190555060019050826001600160a01b0316846001600160a01b03167fddf252ad1be2c89b69c2b068fc378daa952ba7f163c4a11628f55a4df523b3ef8460405161047991815260200190565b60405180910390a39392505050565b6001600160a01b0382166104ea5760405162461bcd60e51b8152602060048201526024808201527f747261736e66657220746f2061646472657373205a65726f206e6f7420616c6c6044820152631bddd95960e21b60648201526084016102be565b80600260008282546104fc91906109a7565b90915550506001600160a01b038216600090815260208190526040812080548392906105299084906109a7565b9091555050604080516001600160a01b0384168152602081018390527f30385c845b448a36257a6a1716e6ad2e1bc2cbe333cde1e69fe849ad6511adfe910160405180910390a15050565b6060600480546101b1906108d4565b60006001600160a01b0383166105ab5760405162461bcd60e51b81526004016102be9061090e565b600082116105ec5760405162461bcd60e51b815260206004820152600e60248201526d696e6372656173652076616c756560901b60448201526064016102be565b3360009081526020819052604090205482111561061b5760405162461bcd60e51b81526004016102be90610952565b336000908152602081905260408120805484929061063a908490610994565b90915550506001600160a01b038316600090815260208190526040812080548492906106679084906109a7565b9091555050604051828152600191506001600160a01b0384169033907fddf252ad1be2c89b69c2b068fc378daa952ba7f163c4a11628f55a4df523b3ef90602001610288565b6001600160a01b038083166000908152600160209081526040808320938516835292905220545b92915050565b336000908152602081905260409020548211156107095760405162461bcd60e51b81526004016102be90610952565b3360009081526020819052604081208054849290610728908490610994565b9091555060009050606461073d84605a6109ba565b61074791906109d1565b9050806002600082825461075b9190610994565b9091555061076b90508184610994565b6001600160a01b039092166000908152602081905260409020919091555050565b600060208083528351808285015260005b818110156107b95785810183015185820160400152820161079d565b506000604082860101526040601f19601f8301168501019250505092915050565b80356001600160a01b03811681146107f157600080fd5b919050565b6000806040838503121561080957600080fd5b610812836107da565b946020939093013593505050565b60008060006060848603121561083557600080fd5b61083e846107da565b925061084c602085016107da565b9150604084013590509250925092565b60006020828403121561086e57600080fd5b610877826107da565b9392505050565b6000806040838503121561089157600080fd5b61089a836107da565b91506108a8602084016107da565b90509250929050565b600080604083850312156108c457600080fd5b823591506108a8602084016107da565b600181811c908216806108e857607f821691505b60208210810361090857634e487b7160e01b600052602260045260246000fd5b50919050565b60208082526024908201527f7472616e7366657220746f2061646472657373205a65726f206e6f7420616c6c6040820152631bddd95960e21b606082015260800190565b602080825260129082015271696e73756666696369656e742066756e647360701b604082015260600190565b634e487b7160e01b600052601160045260246000fd5b818103818111156106d4576106d461097e565b808201808211156106d4576106d461097e565b80820281158282048414176106d4576106d461097e565b6000826109ee57634e487b7160e01b600052601260045260246000fd5b50049056fea26469706673582212202f24b0bb83beab810408661651bca79970066d1e33f5f234daecc87a0517629f64736f6c63430008130033",
    "linkReferences": {}
  },
  "methodIdentifiers": {
    "allowance(address,address)": "dd62ed3e",
    "approve(address,uint256)": "095ea7b3",
    "balanceOf(address)": "70a08231",
    "burn(uint256,address)": "fcd3533c",
    "decimals()": "313ce567",
    "mint(address,uint256)": "40c10f19",
    "name()": "06fdde03",
    "symbol()": "95d89b41",
    "totalSupply()": "18160ddd",
    "transfer(address,uint256)": "a9059cbb",
    "transferFrom(address,address,uint256)": "23b872dd"
  },
  "id": 1
}